{
  "contractName": "Fakenews",
  "abi": [
    {
      "constant": true,
      "inputs": [
        {
          "name": "",
          "type": "uint256"
        }
      ],
      "name": "periodistasAccts",
      "outputs": [
        {
          "name": "",
          "type": "address"
        }
      ],
      "payable": false,
      "stateMutability": "view",
      "type": "function",
      "signature": "0x1fcf4118"
    },
    {
      "constant": true,
      "inputs": [
        {
          "name": "",
          "type": "uint256"
        }
      ],
      "name": "files",
      "outputs": [
        {
          "name": "idNum",
          "type": "uint256"
        },
        {
          "name": "titulo",
          "type": "string"
        },
        {
          "name": "tema",
          "type": "string"
        },
        {
          "name": "fecha",
          "type": "string"
        },
        {
          "name": "descripcion",
          "type": "string"
        },
        {
          "name": "url",
          "type": "string"
        },
        {
          "name": "hash",
          "type": "string"
        },
        {
          "name": "autor",
          "type": "string"
        }
      ],
      "payable": false,
      "stateMutability": "view",
      "type": "function",
      "signature": "0xf4c714b4"
    },
    {
      "constant": false,
      "inputs": [
        {
          "name": "_address",
          "type": "address"
        },
        {
          "name": "nombre",
          "type": "string"
        },
        {
          "name": "apellido",
          "type": "string"
        },
        {
          "name": "email",
          "type": "string"
        },
        {
          "name": "contrasena",
          "type": "string"
        },
        {
          "name": "tipo",
          "type": "string"
        }
      ],
      "name": "registrarPeriodista",
      "outputs": [],
      "payable": false,
      "stateMutability": "nonpayable",
      "type": "function",
      "signature": "0x1354272e"
    },
    {
      "constant": true,
      "inputs": [],
      "name": "getPeridistas",
      "outputs": [
        {
          "name": "",
          "type": "address[]"
        }
      ],
      "payable": false,
      "stateMutability": "view",
      "type": "function",
      "signature": "0x282a6bc8"
    },
    {
      "constant": true,
      "inputs": [
        {
          "name": "_address",
          "type": "address"
        }
      ],
      "name": "getPeriodista",
      "outputs": [
        {
          "name": "",
          "type": "string"
        },
        {
          "name": "",
          "type": "string"
        },
        {
          "name": "",
          "type": "string"
        },
        {
          "name": "",
          "type": "string"
        },
        {
          "name": "",
          "type": "string"
        }
      ],
      "payable": false,
      "stateMutability": "view",
      "type": "function",
      "signature": "0x89465914"
    },
    {
      "constant": true,
      "inputs": [],
      "name": "cantidadPeriodistas",
      "outputs": [
        {
          "name": "",
          "type": "uint256"
        }
      ],
      "payable": false,
      "stateMutability": "view",
      "type": "function",
      "signature": "0x6768e144"
    },
    {
      "constant": false,
      "inputs": [
        {
          "name": "url",
          "type": "string"
        },
        {
          "name": "hash",
          "type": "string"
        },
        {
          "name": "autor",
          "type": "string"
        }
      ],
      "name": "certificarArchivo",
      "outputs": [],
      "payable": false,
      "stateMutability": "nonpayable",
      "type": "function",
      "signature": "0xf40c8aaf"
    },
    {
      "constant": true,
      "inputs": [
        {
          "name": "hash",
          "type": "string"
        }
      ],
      "name": "obtenerInformacionArchivo",
      "outputs": [
        {
          "name": "",
          "type": "string"
        },
        {
          "name": "",
          "type": "string"
        }
      ],
      "payable": false,
      "stateMutability": "view",
      "type": "function",
      "signature": "0xdf959fa6"
    },
    {
      "constant": false,
      "inputs": [
        {
          "name": "_idNum",
          "type": "uint256"
        },
        {
          "name": "_titulo",
          "type": "string"
        },
        {
          "name": "_tema",
          "type": "string"
        },
        {
          "name": "_fecha",
          "type": "string"
        },
        {
          "name": "_descripcion",
          "type": "string"
        },
        {
          "name": "_url",
          "type": "string"
        },
        {
          "name": "_autor",
          "type": "string"
        }
      ],
      "name": "addNoticia",
      "outputs": [
        {
          "name": "",
          "type": "uint256"
        }
      ],
      "payable": false,
      "stateMutability": "nonpayable",
      "type": "function",
      "signature": "0xe5bc140a"
    },
    {
      "constant": true,
      "inputs": [],
      "name": "getUsersCount",
      "outputs": [
        {
          "name": "",
          "type": "uint256"
        }
      ],
      "payable": false,
      "stateMutability": "view",
      "type": "function",
      "signature": "0xa4a1e263"
    },
    {
      "constant": true,
      "inputs": [
        {
          "name": "index",
          "type": "uint256"
        }
      ],
      "name": "getNoticia",
      "outputs": [
        {
          "name": "",
          "type": "uint256"
        },
        {
          "name": "",
          "type": "string"
        },
        {
          "name": "",
          "type": "string"
        },
        {
          "name": "",
          "type": "string"
        },
        {
          "name": "",
          "type": "string"
        },
        {
          "name": "",
          "type": "string"
        }
      ],
      "payable": false,
      "stateMutability": "view",
      "type": "function",
      "signature": "0x073b57a1"
    }
  ],
  "bytecode": "0x608060405234801561001057600080fd5b50612c07806100206000396000f3fe6080604052600436106100af576000357c0100000000000000000000000000000000000000000000000000000000900463ffffffff168063073b57a1146100b45780631354272e1461031f5780631fcf411814610663578063282a6bc8146106de5780636768e1441461074a5780638946591414610775578063a4a1e263146109ef578063df959fa614610a1a578063e5bc140a14610bc7578063f40c8aaf14610fa0578063f4c714b414611196575b600080fd5b3480156100c057600080fd5b506100ed600480360360208110156100d757600080fd5b81019080803590602001909291905050506114d9565b60405180878152602001806020018060200180602001806020018060200186810386528b818151815260200191508051906020019080838360005b83811015610143578082015181840152602081019050610128565b50505050905090810190601f1680156101705780820380516001836020036101000a031916815260200191505b5086810385528a818151815260200191508051906020019080838360005b838110156101a957808201518184015260208101905061018e565b50505050905090810190601f1680156101d65780820380516001836020036101000a031916815260200191505b50868103845289818151815260200191508051906020019080838360005b8381101561020f5780820151818401526020810190506101f4565b50505050905090810190601f16801561023c5780820380516001836020036101000a031916815260200191505b50868103835288818151815260200191508051906020019080838360005b8381101561027557808201518184015260208101905061025a565b50505050905090810190601f1680156102a25780820380516001836020036101000a031916815260200191505b50868103825287818151815260200191508051906020019080838360005b838110156102db5780820151818401526020810190506102c0565b50505050905090810190601f1680156103085780820380516001836020036101000a031916815260200191505b509b50505050505050505050505060405180910390f35b34801561032b57600080fd5b50610661600480360360c081101561034257600080fd5b81019080803573ffffffffffffffffffffffffffffffffffffffff1690602001909291908035906020019064010000000081111561037f57600080fd5b82018360208201111561039157600080fd5b803590602001918460018302840111640100000000831117156103b357600080fd5b91908080601f016020809104026020016040519081016040528093929190818152602001838380828437600081840152601f19601f8201169050808301925050505050505091929192908035906020019064010000000081111561041657600080fd5b82018360208201111561042857600080fd5b8035906020019184600183028401116401000000008311171561044a57600080fd5b91908080601f016020809104026020016040519081016040528093929190818152602001838380828437600081840152601f19601f820116905080830192505050505050509192919290803590602001906401000000008111156104ad57600080fd5b8201836020820111156104bf57600080fd5b803590602001918460018302840111640100000000831117156104e157600080fd5b91908080601f016020809104026020016040519081016040528093929190818152602001838380828437600081840152601f19601f8201169050808301925050505050505091929192908035906020019064010000000081111561054457600080fd5b82018360208201111561055657600080fd5b8035906020019184600183028401116401000000008311171561057857600080fd5b91908080601f016020809104026020016040519081016040528093929190818152602001838380828437600081840152601f19601f820116905080830192505050505050509192919290803590602001906401000000008111156105db57600080fd5b8201836020820111156105ed57600080fd5b8035906020019184600183028401116401000000008311171561060f57600080fd5b91908080601f016020809104026020016040519081016040528093929190818152602001838380828437600081840152601f19601f8201169050808301925050505050505091929192905050506118c5565b005b34801561066f57600080fd5b5061069c6004803603602081101561068657600080fd5b8101908080359060200190929190505050611ae1565b604051808273ffffffffffffffffffffffffffffffffffffffff1673ffffffffffffffffffffffffffffffffffffffff16815260200191505060405180910390f35b3480156106ea57600080fd5b506106f3611b1f565b6040518080602001828103825283818151815260200191508051906020019060200280838360005b8381101561073657808201518184015260208101905061071b565b505050509050019250505060405180910390f35b34801561075657600080fd5b5061075f611bad565b6040518082815260200191505060405180910390f35b34801561078157600080fd5b506107c46004803603602081101561079857600080fd5b81019080803573ffffffffffffffffffffffffffffffffffffffff169060200190929190505050611bba565b60405180806020018060200180602001806020018060200186810386528b818151815260200191508051906020019080838360005b838110156108145780820151818401526020810190506107f9565b50505050905090810190601f1680156108415780820380516001836020036101000a031916815260200191505b5086810385528a818151815260200191508051906020019080838360005b8381101561087a57808201518184015260208101905061085f565b50505050905090810190601f1680156108a75780820380516001836020036101000a031916815260200191505b50868103845289818151815260200191508051906020019080838360005b838110156108e05780820151818401526020810190506108c5565b50505050905090810190601f16801561090d5780820380516001836020036101000a031916815260200191505b50868103835288818151815260200191508051906020019080838360005b8381101561094657808201518184015260208101905061092b565b50505050905090810190601f1680156109735780820380516001836020036101000a031916815260200191505b50868103825287818151815260200191508051906020019080838360005b838110156109ac578082015181840152602081019050610991565b50505050905090810190601f1680156109d95780820380516001836020036101000a031916815260200191505b509a505050505050505050505060405180910390f35b3480156109fb57600080fd5b50610a04612026565b6040518082815260200191505060405180910390f35b348015610a2657600080fd5b50610ae060048036036020811015610a3d57600080fd5b8101908080359060200190640100000000811115610a5a57600080fd5b820183602082011115610a6c57600080fd5b80359060200191846001830284011164010000000083111715610a8e57600080fd5b91908080601f016020809104026020016040519081016040528093929190818152602001838380828437600081840152601f19601f820116905080830192505050505050509192919290505050612033565b604051808060200180602001838103835285818151815260200191508051906020019080838360005b83811015610b24578082015181840152602081019050610b09565b50505050905090810190601f168015610b515780820380516001836020036101000a031916815260200191505b50838103825284818151815260200191508051906020019080838360005b83811015610b8a578082015181840152602081019050610b6f565b50505050905090810190601f168015610bb75780820380516001836020036101000a031916815260200191505b5094505050505060405180910390f35b348015610bd357600080fd5b50610f8a600480360360e0811015610bea57600080fd5b810190808035906020019092919080359060200190640100000000811115610c1157600080fd5b820183602082011115610c2357600080fd5b80359060200191846001830284011164010000000083111715610c4557600080fd5b91908080601f016020809104026020016040519081016040528093929190818152602001838380828437600081840152601f19601f82011690508083019250505050505050919291929080359060200190640100000000811115610ca857600080fd5b820183602082011115610cba57600080fd5b80359060200191846001830284011164010000000083111715610cdc57600080fd5b91908080601f016020809104026020016040519081016040528093929190818152602001838380828437600081840152601f19601f82011690508083019250505050505050919291929080359060200190640100000000811115610d3f57600080fd5b820183602082011115610d5157600080fd5b80359060200191846001830284011164010000000083111715610d7357600080fd5b91908080601f016020809104026020016040519081016040528093929190818152602001838380828437600081840152601f19601f82011690508083019250505050505050919291929080359060200190640100000000811115610dd657600080fd5b820183602082011115610de857600080fd5b80359060200191846001830284011164010000000083111715610e0a57600080fd5b91908080601f016020809104026020016040519081016040528093929190818152602001838380828437600081840152601f19601f82011690508083019250505050505050919291929080359060200190640100000000811115610e6d57600080fd5b820183602082011115610e7f57600080fd5b80359060200191846001830284011164010000000083111715610ea157600080fd5b91908080601f016020809104026020016040519081016040528093929190818152602001838380828437600081840152601f19601f82011690508083019250505050505050919291929080359060200190640100000000811115610f0457600080fd5b820183602082011115610f1657600080fd5b80359060200191846001830284011164010000000083111715610f3857600080fd5b91908080601f016020809104026020016040519081016040528093929190818152602001838380828437600081840152601f19601f820116905080830192505050505050509192919290505050612253565b6040518082815260200191505060405180910390f35b348015610fac57600080fd5b5061119460048036036060811015610fc357600080fd5b8101908080359060200190640100000000811115610fe057600080fd5b820183602082011115610ff257600080fd5b8035906020019184600183028401116401000000008311171561101457600080fd5b91908080601f016020809104026020016040519081016040528093929190818152602001838380828437600081840152601f19601f8201169050808301925050505050505091929192908035906020019064010000000081111561107757600080fd5b82018360208201111561108957600080fd5b803590602001918460018302840111640100000000831117156110ab57600080fd5b91908080601f016020809104026020016040519081016040528093929190818152602001838380828437600081840152601f19601f8201169050808301925050505050505091929192908035906020019064010000000081111561110e57600080fd5b82018360208201111561112057600080fd5b8035906020019184600183028401116401000000008311171561114257600080fd5b91908080601f016020809104026020016040519081016040528093929190818152602001838380828437600081840152601f19601f820116905080830192505050505050509192919290505050612418565b005b3480156111a257600080fd5b506111cf600480360360208110156111b957600080fd5b81019080803590602001909291905050506125a6565b604051808981526020018060200180602001806020018060200180602001806020018060200188810388528f818151815260200191508051906020019080838360005b8381101561122d578082015181840152602081019050611212565b50505050905090810190601f16801561125a5780820380516001836020036101000a031916815260200191505b5088810387528e818151815260200191508051906020019080838360005b83811015611293578082015181840152602081019050611278565b50505050905090810190601f1680156112c05780820380516001836020036101000a031916815260200191505b5088810386528d818151815260200191508051906020019080838360005b838110156112f95780820151818401526020810190506112de565b50505050905090810190601f1680156113265780820380516001836020036101000a031916815260200191505b5088810385528c818151815260200191508051906020019080838360005b8381101561135f578082015181840152602081019050611344565b50505050905090810190601f16801561138c5780820380516001836020036101000a031916815260200191505b5088810384528b818151815260200191508051906020019080838360005b838110156113c55780820151818401526020810190506113aa565b50505050905090810190601f1680156113f25780820380516001836020036101000a031916815260200191505b5088810383528a818151815260200191508051906020019080838360005b8381101561142b578082015181840152602081019050611410565b50505050905090810190601f1680156114585780820380516001836020036101000a031916815260200191505b50888103825289818151815260200191508051906020019080838360005b83811015611491578082015181840152602081019050611476565b50505050905090810190601f1680156114be5780820380516001836020036101000a031916815260200191505b509f5050505050505050505050505050505060405180910390f35b600060608060608060606003878154811015156114f257fe5b90600052602060002090600802016000015460038881548110151561151357fe5b906000526020600020906008020160010160038981548110151561153357fe5b906000526020600020906008020160020160038a81548110151561155357fe5b906000526020600020906008020160030160038b81548110151561157357fe5b906000526020600020906008020160050160038c81548110151561159357fe5b9060005260206000209060080201600701848054600181600116156101000203166002900480601f0160208091040260200160405190810160405280929190818152602001828054600181600116156101000203166002900480156116395780601f1061160e57610100808354040283529160200191611639565b820191906000526020600020905b81548152906001019060200180831161161c57829003601f168201915b50505050509450838054600181600116156101000203166002900480601f0160208091040260200160405190810160405280929190818152602001828054600181600116156101000203166002900480156116d55780601f106116aa576101008083540402835291602001916116d5565b820191906000526020600020905b8154815290600101906020018083116116b857829003601f168201915b50505050509350828054600181600116156101000203166002900480601f0160208091040260200160405190810160405280929190818152602001828054600181600116156101000203166002900480156117715780601f1061174657610100808354040283529160200191611771565b820191906000526020600020905b81548152906001019060200180831161175457829003601f168201915b50505050509250818054600181600116156101000203166002900480601f01602080910402602001604051908101604052809291908181526020018280546001816001161561010002031660029004801561180d5780601f106117e25761010080835404028352916020019161180d565b820191906000526020600020905b8154815290600101906020018083116117f057829003601f168201915b50505050509150808054600181600116156101000203166002900480601f0160208091040260200160405190810160405280929190818152602001828054600181600116156101000203166002900480156118a95780601f1061187e576101008083540402835291602001916118a9565b820191906000526020600020905b81548152906001019060200180831161188c57829003601f168201915b5050505050905095509550955095509550955091939550919395565b846000808873ffffffffffffffffffffffffffffffffffffffff1673ffffffffffffffffffffffffffffffffffffffff168152602001908152602001600020600001908051906020019061191a929190612a25565b50836000808873ffffffffffffffffffffffffffffffffffffffff1673ffffffffffffffffffffffffffffffffffffffff1681526020019081526020016000206001019080519060200190611970929190612a25565b50826000808873ffffffffffffffffffffffffffffffffffffffff1673ffffffffffffffffffffffffffffffffffffffff16815260200190815260200160002060020190805190602001906119c6929190612a25565b50816000808873ffffffffffffffffffffffffffffffffffffffff1673ffffffffffffffffffffffffffffffffffffffff1681526020019081526020016000206003019080519060200190611a1c929190612a25565b50806000808873ffffffffffffffffffffffffffffffffffffffff1673ffffffffffffffffffffffffffffffffffffffff1681526020019081526020016000206004019080519060200190611a72929190612a25565b5060028690806001815401808255809150509060018203906000526020600020016000909192909190916101000a81548173ffffffffffffffffffffffffffffffffffffffff021916908373ffffffffffffffffffffffffffffffffffffffff16021790555050505050505050565b600281815481101515611af057fe5b906000526020600020016000915054906101000a900473ffffffffffffffffffffffffffffffffffffffff1681565b60606002805480602002602001604051908101604052809291908181526020018280548015611ba357602002820191906000526020600020905b8160009054906101000a900473ffffffffffffffffffffffffffffffffffffffff1673ffffffffffffffffffffffffffffffffffffffff1681526020019060010190808311611b59575b5050505050905090565b6000600280549050905090565b60608060608060606000808773ffffffffffffffffffffffffffffffffffffffff1673ffffffffffffffffffffffffffffffffffffffff1681526020019081526020016000206000016000808873ffffffffffffffffffffffffffffffffffffffff1673ffffffffffffffffffffffffffffffffffffffff1681526020019081526020016000206001016000808973ffffffffffffffffffffffffffffffffffffffff1673ffffffffffffffffffffffffffffffffffffffff1681526020019081526020016000206002016000808a73ffffffffffffffffffffffffffffffffffffffff1673ffffffffffffffffffffffffffffffffffffffff1681526020019081526020016000206003016000808b73ffffffffffffffffffffffffffffffffffffffff1673ffffffffffffffffffffffffffffffffffffffff168152602001908152602001600020600401848054600181600116156101000203166002900480601f016020809104026020016040519081016040528092919081815260200182805460018160011615610100020316600290048015611d9c5780601f10611d7157610100808354040283529160200191611d9c565b820191906000526020600020905b815481529060010190602001808311611d7f57829003601f168201915b50505050509450838054600181600116156101000203166002900480601f016020809104026020016040519081016040528092919081815260200182805460018160011615610100020316600290048015611e385780601f10611e0d57610100808354040283529160200191611e38565b820191906000526020600020905b815481529060010190602001808311611e1b57829003601f168201915b50505050509350828054600181600116156101000203166002900480601f016020809104026020016040519081016040528092919081815260200182805460018160011615610100020316600290048015611ed45780601f10611ea957610100808354040283529160200191611ed4565b820191906000526020600020905b815481529060010190602001808311611eb757829003601f168201915b50505050509250818054600181600116156101000203166002900480601f016020809104026020016040519081016040528092919081815260200182805460018160011615610100020316600290048015611f705780601f10611f4557610100808354040283529160200191611f70565b820191906000526020600020905b815481529060010190602001808311611f5357829003601f168201915b50505050509150808054600181600116156101000203166002900480601f01602080910402602001604051908101604052809291908181526020018280546001816001161561010002031660029004801561200c5780601f10611fe15761010080835404028352916020019161200c565b820191906000526020600020905b815481529060010190602001808311611fef57829003601f168201915b505050505090509450945094509450945091939590929450565b6000600380549050905090565b6060806001836040518082805190602001908083835b60208310151561206e5780518252602082019150602081019050602083039250612049565b6001836020036101000a03801982511681845116808217855250505050505090500191505090815260200160405180910390206005016001846040518082805190602001908083835b6020831015156120dc57805182526020820191506020810190506020830392506120b7565b6001836020036101000a0380198251168184511680821785525050505050509050019150509081526020016040518091039020600701818054600181600116156101000203166002900480601f0160208091040260200160405190810160405280929190818152602001828054600181600116156101000203166002900480156121a75780601f1061217c576101008083540402835291602001916121a7565b820191906000526020600020905b81548152906001019060200180831161218a57829003601f168201915b50505050509150808054600181600116156101000203166002900480601f0160208091040260200160405190810160405280929190818152602001828054600181600116156101000203166002900480156122435780601f1061221857610100808354040283529160200191612243565b820191906000526020600020905b81548152906001019060200180831161222657829003601f168201915b5050505050905091509150915091565b6000600380548091906001016122699190612aa5565b5087600360016003805490500381548110151561228257fe5b9060005260206000209060080201600001819055508660036001600380549050038154811015156122af57fe5b906000526020600020906008020160010190805190602001906122d3929190612a25565b508560036001600380549050038154811015156122ec57fe5b90600052602060002090600802016002019080519060200190612310929190612a25565b5084600360016003805490500381548110151561232957fe5b9060005260206000209060080201600301908051906020019061234d929190612a25565b5083600360016003805490500381548110151561236657fe5b9060005260206000209060080201600401908051906020019061238a929190612a25565b508260036001600380549050038154811015156123a357fe5b906000526020600020906008020160050190805190602001906123c7929190612a25565b508160036001600380549050038154811015156123e057fe5b90600052602060002090600802016007019080519060200190612404929190612a25565b506003805490509050979650505050505050565b826001836040518082805190602001908083835b602083101515612451578051825260208201915060208101905060208303925061242c565b6001836020036101000a0380198251168184511680821785525050505050509050019150509081526020016040518091039020600501908051906020019061249a929190612a25565b50816001836040518082805190602001908083835b6020831015156124d457805182526020820191506020810190506020830392506124af565b6001836020036101000a0380198251168184511680821785525050505050509050019150509081526020016040518091039020600601908051906020019061251d929190612a25565b50806001836040518082805190602001908083835b6020831015156125575780518252602082019150602081019050602083039250612532565b6001836020036101000a038019825116818451168082178552505050505050905001915050908152602001604051809103902060070190805190602001906125a0929190612a25565b50505050565b6003818154811015156125b557fe5b9060005260206000209060080201600091509050806000015490806001018054600181600116156101000203166002900480601f0160208091040260200160405190810160405280929190818152602001828054600181600116156101000203166002900480156126675780601f1061263c57610100808354040283529160200191612667565b820191906000526020600020905b81548152906001019060200180831161264a57829003601f168201915b505050505090806002018054600181600116156101000203166002900480601f0160208091040260200160405190810160405280929190818152602001828054600181600116156101000203166002900480156127055780601f106126da57610100808354040283529160200191612705565b820191906000526020600020905b8154815290600101906020018083116126e857829003601f168201915b505050505090806003018054600181600116156101000203166002900480601f0160208091040260200160405190810160405280929190818152602001828054600181600116156101000203166002900480156127a35780601f10612778576101008083540402835291602001916127a3565b820191906000526020600020905b81548152906001019060200180831161278657829003601f168201915b505050505090806004018054600181600116156101000203166002900480601f0160208091040260200160405190810160405280929190818152602001828054600181600116156101000203166002900480156128415780601f1061281657610100808354040283529160200191612841565b820191906000526020600020905b81548152906001019060200180831161282457829003601f168201915b505050505090806005018054600181600116156101000203166002900480601f0160208091040260200160405190810160405280929190818152602001828054600181600116156101000203166002900480156128df5780601f106128b4576101008083540402835291602001916128df565b820191906000526020600020905b8154815290600101906020018083116128c257829003601f168201915b505050505090806006018054600181600116156101000203166002900480601f01602080910402602001604051908101604052809291908181526020018280546001816001161561010002031660029004801561297d5780601f106129525761010080835404028352916020019161297d565b820191906000526020600020905b81548152906001019060200180831161296057829003601f168201915b505050505090806007018054600181600116156101000203166002900480601f016020809104026020016040519081016040528092919081815260200182805460018160011615610100020316600290048015612a1b5780601f106129f057610100808354040283529160200191612a1b565b820191906000526020600020905b8154815290600101906020018083116129fe57829003601f168201915b5050505050905088565b828054600181600116156101000203166002900490600052602060002090601f016020900481019282601f10612a6657805160ff1916838001178555612a94565b82800160010185558215612a94579182015b82811115612a93578251825591602001919060010190612a78565b5b509050612aa19190612ad7565b5090565b815481835581811115612ad257600802816008028360005260206000209182019101612ad19190612afc565b5b505050565b612af991905b80821115612af5576000816000905550600101612add565b5090565b90565b612b9091905b80821115612b8c57600080820160009055600182016000612b239190612b93565b600282016000612b339190612b93565b600382016000612b439190612b93565b600482016000612b539190612b93565b600582016000612b639190612b93565b600682016000612b739190612b93565b600782016000612b839190612b93565b50600801612b02565b5090565b90565b50805460018160011615610100020316600290046000825580601f10612bb95750612bd8565b601f016020900490600052602060002090810190612bd79190612ad7565b5b5056fea165627a7a723058206859bc5a6ef5c558b18e928e06465d615e664ea67258c9792c0a9a1f9eeed3320029",
  "source": "pragma solidity ^0.5.0;\r\ncontract Fakenews {\r\n    \r\n      struct Periodista{\r\n\t    string nombre;\r\n\t    string apellido; \r\n\t    string email;\r\n\t    string contrasena;\r\n\t\tstring tipo;\r\n\t}\r\n\r\n       struct File{\r\n          uint idNum;\r\n          string titulo; \r\n          string tema; \r\n          string fecha; \r\n          string descripcion; \r\n          string url;\r\n          string hash;\r\n          string autor;\r\n       }\r\n       \r\n    mapping (address => Periodista) periodistas; \r\n    mapping (string => File) archivos;\r\n    \r\n    address[] public periodistasAccts; \r\n    File[] public files;\r\n    \r\n    function registrarPeriodista(address _address, string memory nombre, string memory apellido, string memory email, string memory contrasena, string memory tipo)public {\r\n\t    periodistas[_address].nombre=nombre; \r\n\t    periodistas[_address].apellido=apellido;\r\n\t    periodistas[_address].email=email;\r\n\t    periodistas[_address].contrasena=contrasena;\r\n\t\tperiodistas[_address].tipo=tipo;\r\n\r\n\t    periodistasAccts.push(_address);\r\n\t    \r\n\t}\r\n\t\r\n\tfunction getPeridistas() view public returns (address[] memory){\t\r\n\t    return periodistasAccts;\r\n\t    \r\n\t}\r\n\t\r\n\t\r\n\tfunction getPeriodista(address _address) view public returns (string memory, string memory, string memory, string memory, string memory) {\r\n\t    return (periodistas[_address].nombre, periodistas[_address].apellido, periodistas[_address].email, periodistas[_address].contrasena, periodistas[_address].tipo);\r\n\t}\r\n\t\r\n\t\r\n\tfunction cantidadPeriodistas() view public returns (uint){\r\n\t    return periodistasAccts.length; \r\n\t    \r\n\t}\r\n \r\n\r\n    function certificarArchivo(string memory url,string memory hash, string memory  autor) public{\r\n        archivos[hash].url=url;\r\n   \tarchivos[hash].hash=hash;\r\n        archivos[hash].autor=autor;\r\n    }\r\n\r\n    function obtenerInformacionArchivo(string memory hash) view public returns (string memory, string memory) {\r\n       return (archivos[hash].url, archivos[hash].autor);\r\n    }\r\n    \r\n    function addNoticia(uint _idNum, string memory _titulo, string memory _tema, string memory _fecha, string memory _descripcion, string memory _url, string memory _autor) public returns(uint) {\r\n        files.length++;\r\n        files[files.length-1].idNum = _idNum;\r\n        files[files.length-1].titulo = _titulo;\r\n        files[files.length-1].tema = _tema;\r\n        files[files.length-1].fecha = _fecha;\r\n        files[files.length-1].descripcion = _descripcion;\r\n        files[files.length-1].url = _url;\r\n        files[files.length-1].autor = _autor;\r\n        return files.length;\r\n    }\r\n    \r\n     function getUsersCount() public view returns(uint) {\r\n        return files.length;\r\n    }\r\n    \r\n    function getNoticia(uint index) public view returns(uint, string memory, string memory, string memory,string memory, string memory) {\r\n        return (files[index].idNum, files[index].titulo, files[index].tema, files[index].fecha,files[index].url,files[index].autor);\r\n    }\r\n\r\n    \r\n}",
  "sourcePath": "C:/Users/Mejia/FakenewsFinal/contracts/FakeNews.sol",
  "compiler": {
    "name": "solc",
    "version": "0.5.0+commit.1d4f565a.Emscripten.clang"
  },
  "schemaVersion": "3.0.6",
  "updatedAt": "2019-05-31T12:48:45.950Z",
  "devdoc": {
    "methods": {}
  },
  "userdoc": {
    "methods": {}
  }
}